{
  "contractName": "coin",
  "abi": [
    {
      "inputs": [],
      "stateMutability": "nonpayable",
      "type": "constructor"
    },
    {
      "inputs": [],
      "name": "minter",
      "outputs": [
        {
          "internalType": "address",
          "name": "",
          "type": "address"
        }
      ],
      "stateMutability": "view",
      "type": "function",
      "constant": true
    },
    {
      "inputs": [
        {
          "internalType": "address",
          "name": "reciever",
          "type": "address"
        },
        {
          "internalType": "uint256",
          "name": "amount",
          "type": "uint256"
        }
      ],
      "name": "mint",
      "outputs": [],
      "stateMutability": "nonpayable",
      "type": "function"
    },
    {
      "inputs": [
        {
          "internalType": "address",
          "name": "reciever",
          "type": "address"
        },
        {
          "internalType": "uint256",
          "name": "amount",
          "type": "uint256"
        }
      ],
      "name": "send",
      "outputs": [],
      "stateMutability": "nonpayable",
      "type": "function"
    },
    {
      "inputs": [
        {
          "internalType": "address",
          "name": "account",
          "type": "address"
        }
      ],
      "name": "balance",
      "outputs": [
        {
          "internalType": "uint256",
          "name": "",
          "type": "uint256"
        }
      ],
      "stateMutability": "view",
      "type": "function",
      "constant": true
    }
  ],
  "bytecode": "0x608060405234801561001057600080fd5b50336000806101000a81548173ffffffffffffffffffffffffffffffffffffffff021916908373ffffffffffffffffffffffffffffffffffffffff16021790555061069a806100606000396000f3fe608060405234801561001057600080fd5b506004361061004c5760003560e01c8063075461721461005157806340c10f191461006f578063d0679d341461008b578063e3d670d7146100a7575b600080fd5b6100596100d7565b60405161006691906103a5565b60405180910390f35b61008960048036038101906100849190610427565b6100fb565b005b6100a560048036038101906100a09190610427565b6101e3565b005b6100c160048036038101906100bc9190610467565b61031b565b6040516100ce91906104a3565b60405180910390f35b60008054906101000a900473ffffffffffffffffffffffffffffffffffffffff1681565b60008054906101000a900473ffffffffffffffffffffffffffffffffffffffff1673ffffffffffffffffffffffffffffffffffffffff163373ffffffffffffffffffffffffffffffffffffffff1614610189576040517f08c379a00000000000000000000000000000000000000000000000000000000081526004016101809061051b565b60405180910390fd5b80600160008473ffffffffffffffffffffffffffffffffffffffff1673ffffffffffffffffffffffffffffffffffffffff16815260200190815260200160002060008282546101d8919061056a565b925050819055505050565b600033905081600160008373ffffffffffffffffffffffffffffffffffffffff1673ffffffffffffffffffffffffffffffffffffffff16815260200190815260200160002054101561026a576040517f08c379a000000000000000000000000000000000000000000000000000000000815260040161026190610610565b60405180910390fd5b81600160008573ffffffffffffffffffffffffffffffffffffffff1673ffffffffffffffffffffffffffffffffffffffff16815260200190815260200160002060008282546102b9919061056a565b9250508190555081600160008373ffffffffffffffffffffffffffffffffffffffff1673ffffffffffffffffffffffffffffffffffffffff168152602001908152602001600020600082825461030f9190610630565b92505081905550505050565b6000600160008373ffffffffffffffffffffffffffffffffffffffff1673ffffffffffffffffffffffffffffffffffffffff168152602001908152602001600020549050919050565b600073ffffffffffffffffffffffffffffffffffffffff82169050919050565b600061038f82610364565b9050919050565b61039f81610384565b82525050565b60006020820190506103ba6000830184610396565b92915050565b600080fd5b6103ce81610384565b81146103d957600080fd5b50565b6000813590506103eb816103c5565b92915050565b6000819050919050565b610404816103f1565b811461040f57600080fd5b50565b600081359050610421816103fb565b92915050565b6000806040838503121561043e5761043d6103c0565b5b600061044c858286016103dc565b925050602061045d85828601610412565b9150509250929050565b60006020828403121561047d5761047c6103c0565b5b600061048b848285016103dc565b91505092915050565b61049d816103f1565b82525050565b60006020820190506104b86000830184610494565b92915050565b600082825260208201905092915050565b7f7468652075736572206973206e6f7420746865206d696e746572000000000000600082015250565b6000610505601a836104be565b9150610510826104cf565b602082019050919050565b60006020820190508181036000830152610534816104f8565b9050919050565b7f4e487b7100000000000000000000000000000000000000000000000000000000600052601160045260246000fd5b6000610575826103f1565b9150610580836103f1565b92508282019050808211156105985761059761053b565b5b92915050565b7f7468652073656e6465722062616c616e6365206973206c657373207468616e2060008201527f74686520616d6f756e7400000000000000000000000000000000000000000000602082015250565b60006105fa602a836104be565b91506106058261059e565b604082019050919050565b60006020820190508181036000830152610629816105ed565b9050919050565b600061063b826103f1565b9150610646836103f1565b925082820390508181111561065e5761065d61053b565b5b9291505056fea2646970667358221220f05910d1a14c7c1085d1c1008b0f363be886d8f60599c4f7edb56c824e7619b864736f6c63430008110033",
  "immutableReferences": {},
  "source": "pragma solidity  ^0.8.17;\r\n// SPDX-License-Identifier: GPL-3.0\r\n\r\ncontract coin{\r\n    // state variables\r\n    address public minter;\r\n    mapping(address=>uint) balances;\r\n    constructor() {\r\n        minter = msg.sender;\r\n    }\r\n    function mint(address reciever,uint amount) public \r\n    {\r\n        require(msg.sender==minter,\"the user is not the minter\");\r\n        balances[reciever] += amount;\r\n    }\r\n    function send(address reciever,uint amount) public\r\n    {\r\n        address sender = msg.sender;\r\n        require(balances[sender]>=amount,\"the sender balance is less than the amount\");\r\n        balances[reciever] += amount;\r\n        balances[sender] -= amount;\r\n    }\r\n    function balance(address account) public view returns (uint)\r\n    {\r\n        return balances[account];\r\n    }\r\n}",
  "sourcePath": "C:\\Users\\lakka\\OneDrive\\Documents\\coin-dapp\\contracts\\coin.sol",
  "compiler": {
    "name": "solc",
    "version": "0.8.17+commit.8df45f5f.Emscripten.clang"
  },
  "schemaVersion": "3.4.11",
  "updatedAt": "2023-09-07T11:52:58.981Z",
  "networkType": "ethereum",
  "devdoc": {
    "kind": "dev",
    "methods": {},
    "version": 1
  },
  "userdoc": {
    "kind": "user",
    "methods": {},
    "version": 1
  }
}